:100000000C945D000C9485000C9485000C94850084
:100010000C9485000C9485000C9485000C9485004C
:100020000C9485000C9485000C9485000C942A0295
:100030000C9485000C9485000C9485000C9485002C
:100040000C94E0010C9485000C9485000C948500C0
:100050000C9485000C9485000C9485000C9485000C
:100060000C9485000C94850000000008000201003B
:100070000003040700000000000000000000000072
:10008000250028002B0000000000240027002A0083
:10009000040404040404040402020202020203032E
:1000A0000303030301020408102040800102040836
:1000B0001020010204081020170411241FBECFEFE6
:1000C000D8E0DEBFCDBF11E0A0E0B1E0ECE4F9E0A4
:1000D00002C005900D92A030B107D9F721E0A0E051
:1000E000B1E001C01D92A134B207E1F710E0CDE507
:1000F000D0E004C02197FE010E949E04CC35D107B8
:10010000C9F70E9401030C94A4040C94000090E031
:10011000FC01EC55FF4F249180579F4FFC018491C7
:10012000882399F090E0880F991FFC01EA57FF4F50
:10013000A591B491FC01E458FF4F859194918FB73C
:10014000F894EC91E22BEC938FBF089590E0FC01C2
:10015000E859FF4F2491FC01EC55FF4F3491FC010D
:10016000E057FF4FE491EE23C9F0222339F023300A
:1001700001F1A8F4213019F1223029F1F0E0EE0F5D
:10018000FF1FE458FF4FA591B4918FB7F894EC91FD
:10019000611126C030953E233C938FBF08952730D0
:1001A000A9F02830C9F0243049F7809180008F7D74
:1001B00003C0809180008F7780938000DFCF84B56B
:1001C0008F7784BDDBCF84B58F7DFBCF8091B0006E
:1001D0008F778093B000D2CF8091B0008F7DF9CF20
:1001E0003E2BDACF8230910538F0880F991F880FA7
:1001F000991F05970197F1F708953FB7F8948091FB
:100200003D0190913E01A0913F01B091400126B582
:10021000A89B05C02F3F19F00196A11DB11D3FBF3E
:10022000BA2FA92F982F8827BC01CD01620F711D0D
:10023000811D911D42E0660F771F881F991F4A9507
:10024000D1F708958F929F92AF92BF92FF920F9332
:100250001F93CF93DF93FC01F0808BE08F1508F4A0
:100260004AC0828108E512E0081B110987FD139539
:10027000000F111F000F111F8181C8E8D0E0C81BBB
:10028000D10987FDD395CC0FDD1FCC0FDD1F4E01AB
:100290000D2E000CAA08BB089801012E000C440B7F
:1002A000550B281939094A095B09DB010E945904D9
:1002B00024EB30E040E050E00E942F04820E931EB9
:1002C000A41EB51E8C169D062CF0E8018016910622
:1002D0000CF4E4012297CC0FDD1F2FB7F8948F2D7B
:1002E00090E0FC01EE0FFF1FE80FF91FEE5FFE4FDD
:1002F000D283C1832FBFDF91CF911F910F91FF90C8
:10030000BF90AF909F908F9008951F93CF93DF93EE
:10031000EC01162F88818C3008F04DC0862F0E948A
:1003200087008881282F30E0F901EE0FFF1FE20FD0
:10033000F31FEE5FFE4F1F736081607C612B608353
:1003400019821A822CE0622F0E949204829FB001CF
:10035000112430E020E0AB01420F531FFA01EE0FF1
:10036000FF1FE40FF51FEE5FFE4F908196FD16C054
:100370002F5F3F4F2C30310571F781110FC0109264
:10038000800082E0809381001092850010928400AA
:10039000B19A80916F00826080936F00E8818E2F08
:1003A00090E0FC01EE0FFF1FE80FF91FEE5FFE4F1C
:1003B0008081806480838881DF91CF911F9108952F
:1003C0001F920F920FB60F9211242F933F938F938A
:1003D0009F93AF93BF938091390190913A01A0917F
:1003E0003B01B0913C013091380123E0230F2D37C0
:1003F00058F50196A11DB11D209338018093390154
:1004000090933A01A0933B01B0933C0180913D0150
:1004100090913E01A0913F01B09140010196A11D34
:10042000B11D80933D0190933E01A0933F01B09395
:100430004001BF91AF919F918F913F912F910F906C
:100440000FBE0F901F90189526E8230F0296A11D4E
:10045000B11DD2CF1F920F920FB60F9211242F937E
:100460003F934F935F936F937F938F939F93AF933C
:10047000BF93CF93DF93EF93FF9380910001C091DF
:100480000101D0E087FF24C0109285001092840003
:10049000809100018F5F8093000180910001082E00
:1004A000000C990B8C179D0724F4809100018C306F
:1004B000C4F18091840090918500049680349C4919
:1004C00008F47AC08091840090918500049676C0EB
:1004D00080910001082E000C990B8C179D07C4F623
:1004E000E09100018E2FEE0F990BFC01EE0FFF1F24
:1004F000E80FF91FEE5FFE4F808186FFC9CFE091C4
:1005000000018E2FEE0F990BFC01EE0FFF1FE80F7D
:10051000F91FEE5FFE4F808160E08F730E94A6009E
:10052000B7CF2091840030918500E09100018E2F9B
:10053000EE0F990BFC01EE0FFF1FE80FF91FEE5FA6
:10054000FE4F81819281820F931F90938900809347
:100550008800E09100018E2FEE0F990BFC01EE0F49
:10056000FF1FE80FF91FEE5FFE4F808186FF11C06D
:10057000E09100018E2FEE0F990BFC01EE0FFF1F93
:10058000E80FF91FEE5FFE4F808161E08F730E94DC
:10059000A600FF91EF91DF91CF91BF91AF919F9115
:1005A0008F917F916F915F914F913F912F910F901C
:1005B0000FBE0F901F90189580E49CE990938900DE
:1005C000809388008FEF80930001E3CFFC0190912E
:1005D00001019C3098F481E0890F809301019083A0
:1005E000892F90E0FC01EE0FFF1FE80FF91FEE5F6F
:1005F000FE4F88EB9BE09283818308958FEF808389
:100600000895789484B5826084BD84B5816084BD8A
:1006100085B5826085BD85B5816085BD80916E00A0
:10062000816080936E0010928100809181008260D1
:10063000809381008091810081608093810080910E
:1006400080008160809380008091B10084608093FD
:10065000B1008091B00081608093B00080917A00F9
:10066000846080937A0080917A00826080937A001F
:1006700080917A00816080937A0080917A0080680E
:1006800080937A001092C1008CE00E94870060E0A5
:100690008CE00E94A6006BE070E085E391E00E9490
:1006A00085016AE070E082E391E00E94850169E0E3
:1006B00070E08FE291E00E94850166E070E08CE2DC
:1006C00091E00E94850165E070E089E291E00E947E
:1006D000850163E070E086E291E00E94850170E0B0
:1006E00060E085E391E00E94220168E270E082E32D
:1006F00091E00E94220164EB70E08FE291E00E94A1
:1007000022016AEA70E089E291E00E94220170E031
:1007100060E08CE291E00E94220169E470E086E2F0
:1007200091E00E9422018FB7F894C0903901D090D7
:100730003A01E0903B01F0903C018FBF2FB7F89455
:100740008091390190913A01A0913B01B0913C0117
:100750002FBF8C199D09AE09BF09803D9740A105A7
:10076000B10588F461E08CE00E94A6008AE090E088
:100770000E94F20060E08CE00E94A60088E092E017
:100780000E94F200DBCF2FB7F8948091390190914D
:100790003A01A0913B01B0913C012FBF8C199D09FA
:1007A000AE09BF0961E080379741A105B10580F42A
:1007B0008CE00E94A60085E090E00E94F20060E0DC
:1007C0008CE00E94A60084EF91E00E94F200DBCF53
:1007D0008CE00E94A600C0E0D0E00E94FD004B012A
:1007E0005C0188EEC82E83E0D82EE12CF12C0E940B
:1007F000FD00681979098A099B09683E73408105E3
:100800009105A8F381E0C81AD108E108F10828EEA3
:10081000820E23E0921EA11CB11CC114D104E1047C
:10082000F10429F72097C9F20E940000D6CF85E392
:1008300091E00E94E60282E391E00E94E6028FE2EC
:1008400091E00E94E6028CE291E00E94E60289E2D9
:1008500091E00E94E60286E291E00C94E602052E09
:1008600097FB1EF400940E94460457FD07D00E9497
:10087000610407FC03D04EF40C9446045095409557
:10088000309521953F4F4F4F5F4F0895909580953C
:10089000709561957F4F8F4F9F4F08950E948304FD
:1008A000A59F900DB49F900DA49F800D911D1124C4
:1008B0000895B7FF0C944E040E944E04821B930BC4
:1008C0000895A1E21A2EAA1BBB1BFD010DC0AA1F91
:1008D000BB1FEE1FFF1FA217B307E407F50720F0A9
:1008E000A21BB30BE40BF50B661F771F881F991F24
:1008F0001A9469F760957095809590959B01AC016D
:10090000BD01CF010895A29FB001B39FC001A39F75
:10091000700D811D1124911DB29F700D811D112438
:10092000911D0895991B79E004C0991F961708F04E
:10093000961B881F7A95C9F780950895EE0FFF1FC3
:0C0940000590F491E02D0994F894FFCF8D
:00000001FF
